{
	"contracts/Logic.sol": {
		"Logic": {
			"abi": [
				{
					"inputs": [],
					"name": "counter",
					"outputs": [
						{
							"internalType": "uint256",
							"name": "",
							"type": "uint256"
						}
					],
					"stateMutability": "view",
					"type": "function"
				},
				{
					"inputs": [],
					"name": "increment",
					"outputs": [],
					"stateMutability": "nonpayable",
					"type": "function"
				}
			],
			"devdoc": {
				"kind": "dev",
				"methods": {},
				"version": 1
			},
			"evm": {
				"assembly": "    /* \"contracts/Logic.sol\":102:319  contract Logic {... */\n  mstore(0x40, 0x80)\n  callvalue\n  dup1\n  iszero\n  tag_1\n  jumpi\n  0x00\n  dup1\n  revert\ntag_1:\n  pop\n  dataSize(sub_0)\n  dup1\n  dataOffset(sub_0)\n  0x00\n  codecopy\n  0x00\n  return\nstop\n\nsub_0: assembly {\n        /* \"contracts/Logic.sol\":102:319  contract Logic {... */\n      mstore(0x40, 0x80)\n      callvalue\n      dup1\n      iszero\n      tag_1\n      jumpi\n      0x00\n      dup1\n      revert\n    tag_1:\n      pop\n      jumpi(tag_2, lt(calldatasize, 0x04))\n      shr(0xe0, calldataload(0x00))\n      dup1\n      0x61bc221a\n      eq\n      tag_3\n      jumpi\n      dup1\n      0xd09de08a\n      eq\n      tag_4\n      jumpi\n    tag_2:\n      0x00\n      dup1\n      revert\n        /* \"contracts/Logic.sol\":123:145  uint256 public counter */\n    tag_3:\n      tag_5\n      tag_6\n      jump\t// in\n    tag_5:\n      mload(0x40)\n      tag_7\n      swap2\n      swap1\n      tag_8\n      jump\t// in\n    tag_7:\n      mload(0x40)\n      dup1\n      swap2\n      sub\n      swap1\n      return\n        /* \"contracts/Logic.sol\":207:317  function increment() public {... */\n    tag_4:\n      tag_9\n      tag_10\n      jump\t// in\n    tag_9:\n      stop\n        /* \"contracts/Logic.sol\":123:145  uint256 public counter */\n    tag_6:\n      sload(0x00)\n      dup2\n      jump\t// out\n        /* \"contracts/Logic.sol\":207:317  function increment() public {... */\n    tag_10:\n        /* \"contracts/Logic.sol\":256:257  1 */\n      0x01\n        /* \"contracts/Logic.sol\":245:252  counter */\n      0x00\n      dup1\n        /* \"contracts/Logic.sol\":245:257  counter += 1 */\n      dup3\n      dup3\n      sload\n      tag_12\n      swap2\n      swap1\n      tag_13\n      jump\t// in\n    tag_12:\n      swap3\n      pop\n      pop\n      dup2\n      swap1\n      sstore\n      pop\n        /* \"contracts/Logic.sol\":267:310  console.log(\"Logic_v1 counter incremented\") */\n      tag_14\n      mload(0x40)\n      dup1\n      0x40\n      add\n      0x40\n      mstore\n      dup1\n      0x1c\n      dup2\n      mstore\n      0x20\n      add\n      0x4c6f6769635f763120636f756e74657220696e6372656d656e74656400000000\n      dup2\n      mstore\n      pop\n        /* \"contracts/Logic.sol\":267:278  console.log */\n      tag_15\n        /* \"contracts/Logic.sol\":267:310  console.log(\"Logic_v1 counter incremented\") */\n      jump\t// in\n    tag_14:\n        /* \"contracts/Logic.sol\":207:317  function increment() public {... */\n      jump\t// out\n        /* \"hardhat/console.sol\":6071:6192  function log(string memory p0) internal pure {... */\n    tag_15:\n        /* \"hardhat/console.sol\":6126:6185  _sendLogPayload(abi.encodeWithSignature(\"log(string)\", p0)) */\n      tag_17\n        /* \"hardhat/console.sol\":6181:6183  p0 */\n      dup2\n        /* \"hardhat/console.sol\":6142:6184  abi.encodeWithSignature(\"log(string)\", p0) */\n      add(0x24, mload(0x40))\n      tag_18\n      swap2\n      swap1\n      tag_19\n      jump\t// in\n    tag_18:\n      mload(0x40)\n      0x20\n      dup2\n      dup4\n      sub\n      sub\n      dup2\n      mstore\n      swap1\n      0x40\n      mstore\n      and(not(0xffffffffffffffffffffffffffffffffffffffffffffffffffffffff), 0x41304fac00000000000000000000000000000000000000000000000000000000)\n      0x20\n      dup3\n      add\n      dup1\n      mload\n      0xffffffffffffffffffffffffffffffffffffffffffffffffffffffff\n      dup4\n      dup2\n      dup4\n      and\n      or\n      dup4\n      mstore\n      pop\n      pop\n      pop\n      pop\n        /* \"hardhat/console.sol\":6126:6141  _sendLogPayload */\n      tag_20\n        /* \"hardhat/console.sol\":6126:6185  _sendLogPayload(abi.encodeWithSignature(\"log(string)\", p0)) */\n      jump\t// in\n    tag_17:\n        /* \"hardhat/console.sol\":6071:6192  function log(string memory p0) internal pure {... */\n      pop\n      jump\t// out\n        /* \"hardhat/console.sol\":851:980  function _sendLogPayload(bytes memory payload) internal pure {... */\n    tag_20:\n        /* \"hardhat/console.sol\":922:973  _castToPure(_sendLogPayloadImplementation)(payload) */\n      tag_22\n        /* \"hardhat/console.sol\":965:972  payload */\n      dup2\n        /* \"hardhat/console.sol\":922:964  _castToPure(_sendLogPayloadImplementation) */\n      tag_23\n        /* \"hardhat/console.sol\":934:963  _sendLogPayloadImplementation */\n      tag_24\n        /* \"hardhat/console.sol\":922:933  _castToPure */\n      tag_25\n        /* \"hardhat/console.sol\":922:964  _castToPure(_sendLogPayloadImplementation) */\n      jump\t// in\n    tag_23:\n        /* \"hardhat/console.sol\":922:973  _castToPure(_sendLogPayloadImplementation)(payload) */\n      0xffffffff\n      and\n      jump\t// in\n    tag_22:\n        /* \"hardhat/console.sol\":851:980  function _sendLogPayload(bytes memory payload) internal pure {... */\n      pop\n      jump\t// out\n        /* \"hardhat/console.sol\":180:643  function _sendLogPayloadImplementation(bytes memory payload) internal view {... */\n    tag_24:\n        /* \"hardhat/console.sol\":265:287  address consoleAddress */\n      0x00\n        /* \"hardhat/console.sol\":131:173  0x000000000000000000636F6e736F6c652e6c6f67 */\n      0x636f6e736f6c652e6c6f67\n        /* \"hardhat/console.sol\":265:305  address consoleAddress = CONSOLE_ADDRESS */\n      swap1\n      pop\n        /* \"hardhat/console.sol\":594:595  0 */\n      0x00\n        /* \"hardhat/console.sol\":571:572  0 */\n      dup1\n        /* \"hardhat/console.sol\":541:548  payload */\n      dup4\n        /* \"hardhat/console.sol\":535:549  mload(payload) */\n      mload\n        /* \"hardhat/console.sol\":510:512  32 */\n      0x20\n        /* \"hardhat/console.sol\":501:508  payload */\n      dup6\n        /* \"hardhat/console.sol\":497:513  add(payload, 32) */\n      add\n        /* \"hardhat/console.sol\":461:475  consoleAddress */\n      dup5\n        /* \"hardhat/console.sol\":434:439  gas() */\n      gas\n        /* \"hardhat/console.sol\":402:613  staticcall(... */\n      staticcall\n        /* \"hardhat/console.sol\":381:627  pop(... */\n      pop\n        /* \"hardhat/console.sol\":367:637  {... */\n      pop\n        /* \"hardhat/console.sol\":180:643  function _sendLogPayloadImplementation(bytes memory payload) internal view {... */\n      pop\n      jump\t// out\n        /* \"hardhat/console.sol\":649:845  function _castToPure(... */\n    tag_25:\n        /* \"hardhat/console.sol\":748:781  function(bytes memory) pure fnOut */\n      tag_27\n        /* \"hardhat/console.sol\":825:829  fnIn */\n      dup2\n        /* \"hardhat/console.sol\":816:829  fnOut := fnIn */\n      swap1\n      pop\n        /* \"hardhat/console.sol\":649:845  function _castToPure(... */\n      swap2\n      swap1\n      pop\n      jump\t// out\n    tag_27:\n      tag_29\n      tag_30\n      jump\t// in\n    tag_29:\n      jump\t// out\n        /* \"#utility.yul\":7:84   */\n    tag_31:\n        /* \"#utility.yul\":44:51   */\n      0x00\n        /* \"#utility.yul\":73:78   */\n      dup2\n        /* \"#utility.yul\":62:78   */\n      swap1\n      pop\n        /* \"#utility.yul\":7:84   */\n      swap2\n      swap1\n      pop\n      jump\t// out\n        /* \"#utility.yul\":90:208   */\n    tag_32:\n        /* \"#utility.yul\":177:201   */\n      tag_42\n        /* \"#utility.yul\":195:200   */\n      dup2\n        /* \"#utility.yul\":177:201   */\n      tag_31\n      jump\t// in\n    tag_42:\n        /* \"#utility.yul\":172:175   */\n      dup3\n        /* \"#utility.yul\":165:202   */\n      mstore\n        /* \"#utility.yul\":90:208   */\n      pop\n      pop\n      jump\t// out\n        /* \"#utility.yul\":214:436   */\n    tag_8:\n        /* \"#utility.yul\":307:311   */\n      0x00\n        /* \"#utility.yul\":345:347   */\n      0x20\n        /* \"#utility.yul\":334:343   */\n      dup3\n        /* \"#utility.yul\":330:348   */\n      add\n        /* \"#utility.yul\":322:348   */\n      swap1\n      pop\n        /* \"#utility.yul\":358:429   */\n      tag_44\n        /* \"#utility.yul\":426:427   */\n      0x00\n        /* \"#utility.yul\":415:424   */\n      dup4\n        /* \"#utility.yul\":411:428   */\n      add\n        /* \"#utility.yul\":402:408   */\n      dup5\n        /* \"#utility.yul\":358:429   */\n      tag_32\n      jump\t// in\n    tag_44:\n        /* \"#utility.yul\":214:436   */\n      swap3\n      swap2\n      pop\n      pop\n      jump\t// out\n        /* \"#utility.yul\":442:622   */\n    tag_33:\n        /* \"#utility.yul\":490:567   */\n      0x4e487b7100000000000000000000000000000000000000000000000000000000\n        /* \"#utility.yul\":487:488   */\n      0x00\n        /* \"#utility.yul\":480:568   */\n      mstore\n        /* \"#utility.yul\":587:591   */\n      0x11\n        /* \"#utility.yul\":584:585   */\n      0x04\n        /* \"#utility.yul\":577:592   */\n      mstore\n        /* \"#utility.yul\":611:615   */\n      0x24\n        /* \"#utility.yul\":608:609   */\n      0x00\n        /* \"#utility.yul\":601:616   */\n      revert\n        /* \"#utility.yul\":628:819   */\n    tag_13:\n        /* \"#utility.yul\":668:671   */\n      0x00\n        /* \"#utility.yul\":687:707   */\n      tag_47\n        /* \"#utility.yul\":705:706   */\n      dup3\n        /* \"#utility.yul\":687:707   */\n      tag_31\n      jump\t// in\n    tag_47:\n        /* \"#utility.yul\":682:707   */\n      swap2\n      pop\n        /* \"#utility.yul\":721:741   */\n      tag_48\n        /* \"#utility.yul\":739:740   */\n      dup4\n        /* \"#utility.yul\":721:741   */\n      tag_31\n      jump\t// in\n    tag_48:\n        /* \"#utility.yul\":716:741   */\n      swap3\n      pop\n        /* \"#utility.yul\":764:765   */\n      dup3\n        /* \"#utility.yul\":761:762   */\n      dup3\n        /* \"#utility.yul\":757:766   */\n      add\n        /* \"#utility.yul\":750:766   */\n      swap1\n      pop\n        /* \"#utility.yul\":785:788   */\n      dup1\n        /* \"#utility.yul\":782:783   */\n      dup3\n        /* \"#utility.yul\":779:789   */\n      gt\n        /* \"#utility.yul\":776:812   */\n      iszero\n      tag_49\n      jumpi\n        /* \"#utility.yul\":792:810   */\n      tag_50\n      tag_33\n      jump\t// in\n    tag_50:\n        /* \"#utility.yul\":776:812   */\n    tag_49:\n        /* \"#utility.yul\":628:819   */\n      swap3\n      swap2\n      pop\n      pop\n      jump\t// out\n        /* \"#utility.yul\":825:924   */\n    tag_34:\n        /* \"#utility.yul\":877:883   */\n      0x00\n        /* \"#utility.yul\":911:916   */\n      dup2\n        /* \"#utility.yul\":905:917   */\n      mload\n        /* \"#utility.yul\":895:917   */\n      swap1\n      pop\n        /* \"#utility.yul\":825:924   */\n      swap2\n      swap1\n      pop\n      jump\t// out\n        /* \"#utility.yul\":930:1099   */\n    tag_35:\n        /* \"#utility.yul\":1014:1025   */\n      0x00\n        /* \"#utility.yul\":1048:1054   */\n      dup3\n        /* \"#utility.yul\":1043:1046   */\n      dup3\n        /* \"#utility.yul\":1036:1055   */\n      mstore\n        /* \"#utility.yul\":1088:1092   */\n      0x20\n        /* \"#utility.yul\":1083:1086   */\n      dup3\n        /* \"#utility.yul\":1079:1093   */\n      add\n        /* \"#utility.yul\":1064:1093   */\n      swap1\n      pop\n        /* \"#utility.yul\":930:1099   */\n      swap3\n      swap2\n      pop\n      pop\n      jump\t// out\n        /* \"#utility.yul\":1105:1244   */\n    tag_36:\n        /* \"#utility.yul\":1194:1200   */\n      dup3\n        /* \"#utility.yul\":1189:1192   */\n      dup2\n        /* \"#utility.yul\":1184:1187   */\n      dup4\n        /* \"#utility.yul\":1178:1201   */\n      mcopy\n        /* \"#utility.yul\":1235:1236   */\n      0x00\n        /* \"#utility.yul\":1226:1232   */\n      dup4\n        /* \"#utility.yul\":1221:1224   */\n      dup4\n        /* \"#utility.yul\":1217:1233   */\n      add\n        /* \"#utility.yul\":1210:1237   */\n      mstore\n        /* \"#utility.yul\":1105:1244   */\n      pop\n      pop\n      pop\n      jump\t// out\n        /* \"#utility.yul\":1250:1352   */\n    tag_37:\n        /* \"#utility.yul\":1291:1297   */\n      0x00\n        /* \"#utility.yul\":1342:1344   */\n      0x1f\n        /* \"#utility.yul\":1338:1345   */\n      not\n        /* \"#utility.yul\":1333:1335   */\n      0x1f\n        /* \"#utility.yul\":1326:1331   */\n      dup4\n        /* \"#utility.yul\":1322:1336   */\n      add\n        /* \"#utility.yul\":1318:1346   */\n      and\n        /* \"#utility.yul\":1308:1346   */\n      swap1\n      pop\n        /* \"#utility.yul\":1250:1352   */\n      swap2\n      swap1\n      pop\n      jump\t// out\n        /* \"#utility.yul\":1358:1735   */\n    tag_38:\n        /* \"#utility.yul\":1446:1449   */\n      0x00\n        /* \"#utility.yul\":1474:1513   */\n      tag_56\n        /* \"#utility.yul\":1507:1512   */\n      dup3\n        /* \"#utility.yul\":1474:1513   */\n      tag_34\n      jump\t// in\n    tag_56:\n        /* \"#utility.yul\":1529:1600   */\n      tag_57\n        /* \"#utility.yul\":1593:1599   */\n      dup2\n        /* \"#utility.yul\":1588:1591   */\n      dup6\n        /* \"#utility.yul\":1529:1600   */\n      tag_35\n      jump\t// in\n    tag_57:\n        /* \"#utility.yul\":1522:1600   */\n      swap4\n      pop\n        /* \"#utility.yul\":1609:1674   */\n      tag_58\n        /* \"#utility.yul\":1667:1673   */\n      dup2\n        /* \"#utility.yul\":1662:1665   */\n      dup6\n        /* \"#utility.yul\":1655:1659   */\n      0x20\n        /* \"#utility.yul\":1648:1653   */\n      dup7\n        /* \"#utility.yul\":1644:1660   */\n      add\n        /* \"#utility.yul\":1609:1674   */\n      tag_36\n      jump\t// in\n    tag_58:\n        /* \"#utility.yul\":1699:1728   */\n      tag_59\n        /* \"#utility.yul\":1721:1727   */\n      dup2\n        /* \"#utility.yul\":1699:1728   */\n      tag_37\n      jump\t// in\n    tag_59:\n        /* \"#utility.yul\":1694:1697   */\n      dup5\n        /* \"#utility.yul\":1690:1729   */\n      add\n        /* \"#utility.yul\":1683:1729   */\n      swap2\n      pop\n        /* \"#utility.yul\":1450:1735   */\n      pop\n        /* \"#utility.yul\":1358:1735   */\n      swap3\n      swap2\n      pop\n      pop\n      jump\t// out\n        /* \"#utility.yul\":1741:2054   */\n    tag_19:\n        /* \"#utility.yul\":1854:1858   */\n      0x00\n        /* \"#utility.yul\":1892:1894   */\n      0x20\n        /* \"#utility.yul\":1881:1890   */\n      dup3\n        /* \"#utility.yul\":1877:1895   */\n      add\n        /* \"#utility.yul\":1869:1895   */\n      swap1\n      pop\n        /* \"#utility.yul\":1941:1950   */\n      dup2\n        /* \"#utility.yul\":1935:1939   */\n      dup2\n        /* \"#utility.yul\":1931:1951   */\n      sub\n        /* \"#utility.yul\":1927:1928   */\n      0x00\n        /* \"#utility.yul\":1916:1925   */\n      dup4\n        /* \"#utility.yul\":1912:1929   */\n      add\n        /* \"#utility.yul\":1905:1952   */\n      mstore\n        /* \"#utility.yul\":1969:2047   */\n      tag_61\n        /* \"#utility.yul\":2042:2046   */\n      dup2\n        /* \"#utility.yul\":2033:2039   */\n      dup5\n        /* \"#utility.yul\":1969:2047   */\n      tag_38\n      jump\t// in\n    tag_61:\n        /* \"#utility.yul\":1961:2047   */\n      swap1\n      pop\n        /* \"#utility.yul\":1741:2054   */\n      swap3\n      swap2\n      pop\n      pop\n      jump\t// out\n        /* \"#utility.yul\":2060:2240   */\n    tag_30:\n        /* \"#utility.yul\":2108:2185   */\n      0x4e487b7100000000000000000000000000000000000000000000000000000000\n        /* \"#utility.yul\":2105:2106   */\n      0x00\n        /* \"#utility.yul\":2098:2186   */\n      mstore\n        /* \"#utility.yul\":2205:2209   */\n      0x51\n        /* \"#utility.yul\":2202:2203   */\n      0x04\n        /* \"#utility.yul\":2195:2210   */\n      mstore\n        /* \"#utility.yul\":2229:2233   */\n      0x24\n        /* \"#utility.yul\":2226:2227   */\n      0x00\n        /* \"#utility.yul\":2219:2234   */\n      revert\n\n    auxdata: 0xa2646970667358221220313585d07fd5d97f91113df2b6d0b2ac71a629f8eba569e4c9c50a1309fd314064736f6c634300081a0033\n}\n",
				"bytecode": {
					"linkReferences": {},
					"object": "6080604052348015600e575f80fd5b506103288061001c5f395ff3fe608060405234801561000f575f80fd5b5060043610610034575f3560e01c806361bc221a14610038578063d09de08a14610056575b5f80fd5b610040610060565b60405161004d91906101bc565b60405180910390f35b61005e610065565b005b5f5481565b60015f808282546100769190610202565b925050819055506100bb6040518060400160405280601c81526020017f4c6f6769635f763120636f756e74657220696e6372656d656e746564000000008152506100bd565b565b610153816040516024016100d191906102a5565b6040516020818303038152906040527f41304fac000000000000000000000000000000000000000000000000000000007bffffffffffffffffffffffffffffffffffffffffffffffffffffffff19166020820180517bffffffffffffffffffffffffffffffffffffffffffffffffffffffff8381831617835250505050610156565b50565b61016d8161016561017061018f565b63ffffffff16565b50565b5f6a636f6e736f6c652e6c6f6790505f80835160208501845afa505050565b61019a819050919050565b6101a26102c5565b565b5f819050919050565b6101b6816101a4565b82525050565b5f6020820190506101cf5f8301846101ad565b92915050565b7f4e487b71000000000000000000000000000000000000000000000000000000005f52601160045260245ffd5b5f61020c826101a4565b9150610217836101a4565b925082820190508082111561022f5761022e6101d5565b5b92915050565b5f81519050919050565b5f82825260208201905092915050565b8281835e5f83830152505050565b5f601f19601f8301169050919050565b5f61027782610235565b610281818561023f565b935061029181856020860161024f565b61029a8161025d565b840191505092915050565b5f6020820190508181035f8301526102bd818461026d565b905092915050565b7f4e487b71000000000000000000000000000000000000000000000000000000005f52605160045260245ffdfea2646970667358221220313585d07fd5d97f91113df2b6d0b2ac71a629f8eba569e4c9c50a1309fd314064736f6c634300081a0033",
					"opcodes": "PUSH1 0x80 PUSH1 0x40 MSTORE CALLVALUE DUP1 ISZERO PUSH1 0xE JUMPI PUSH0 DUP1 REVERT JUMPDEST POP PUSH2 0x328 DUP1 PUSH2 0x1C PUSH0 CODECOPY PUSH0 RETURN INVALID PUSH1 0x80 PUSH1 0x40 MSTORE CALLVALUE DUP1 ISZERO PUSH2 0xF JUMPI PUSH0 DUP1 REVERT JUMPDEST POP PUSH1 0x4 CALLDATASIZE LT PUSH2 0x34 JUMPI PUSH0 CALLDATALOAD PUSH1 0xE0 SHR DUP1 PUSH4 0x61BC221A EQ PUSH2 0x38 JUMPI DUP1 PUSH4 0xD09DE08A EQ PUSH2 0x56 JUMPI JUMPDEST PUSH0 DUP1 REVERT JUMPDEST PUSH2 0x40 PUSH2 0x60 JUMP JUMPDEST PUSH1 0x40 MLOAD PUSH2 0x4D SWAP2 SWAP1 PUSH2 0x1BC JUMP JUMPDEST PUSH1 0x40 MLOAD DUP1 SWAP2 SUB SWAP1 RETURN JUMPDEST PUSH2 0x5E PUSH2 0x65 JUMP JUMPDEST STOP JUMPDEST PUSH0 SLOAD DUP2 JUMP JUMPDEST PUSH1 0x1 PUSH0 DUP1 DUP3 DUP3 SLOAD PUSH2 0x76 SWAP2 SWAP1 PUSH2 0x202 JUMP JUMPDEST SWAP3 POP POP DUP2 SWAP1 SSTORE POP PUSH2 0xBB PUSH1 0x40 MLOAD DUP1 PUSH1 0x40 ADD PUSH1 0x40 MSTORE DUP1 PUSH1 0x1C DUP2 MSTORE PUSH1 0x20 ADD PUSH32 0x4C6F6769635F763120636F756E74657220696E6372656D656E74656400000000 DUP2 MSTORE POP PUSH2 0xBD JUMP JUMPDEST JUMP JUMPDEST PUSH2 0x153 DUP2 PUSH1 0x40 MLOAD PUSH1 0x24 ADD PUSH2 0xD1 SWAP2 SWAP1 PUSH2 0x2A5 JUMP JUMPDEST PUSH1 0x40 MLOAD PUSH1 0x20 DUP2 DUP4 SUB SUB DUP2 MSTORE SWAP1 PUSH1 0x40 MSTORE PUSH32 0x41304FAC00000000000000000000000000000000000000000000000000000000 PUSH28 0xFFFFFFFFFFFFFFFFFFFFFFFFFFFFFFFFFFFFFFFFFFFFFFFFFFFFFFFF NOT AND PUSH1 0x20 DUP3 ADD DUP1 MLOAD PUSH28 0xFFFFFFFFFFFFFFFFFFFFFFFFFFFFFFFFFFFFFFFFFFFFFFFFFFFFFFFF DUP4 DUP2 DUP4 AND OR DUP4 MSTORE POP POP POP POP PUSH2 0x156 JUMP JUMPDEST POP JUMP JUMPDEST PUSH2 0x16D DUP2 PUSH2 0x165 PUSH2 0x170 PUSH2 0x18F JUMP JUMPDEST PUSH4 0xFFFFFFFF AND JUMP JUMPDEST POP JUMP JUMPDEST PUSH0 PUSH11 0x636F6E736F6C652E6C6F67 SWAP1 POP PUSH0 DUP1 DUP4 MLOAD PUSH1 0x20 DUP6 ADD DUP5 GAS STATICCALL POP POP POP JUMP JUMPDEST PUSH2 0x19A DUP2 SWAP1 POP SWAP2 SWAP1 POP JUMP JUMPDEST PUSH2 0x1A2 PUSH2 0x2C5 JUMP JUMPDEST JUMP JUMPDEST PUSH0 DUP2 SWAP1 POP SWAP2 SWAP1 POP JUMP JUMPDEST PUSH2 0x1B6 DUP2 PUSH2 0x1A4 JUMP JUMPDEST DUP3 MSTORE POP POP JUMP JUMPDEST PUSH0 PUSH1 0x20 DUP3 ADD SWAP1 POP PUSH2 0x1CF PUSH0 DUP4 ADD DUP5 PUSH2 0x1AD JUMP JUMPDEST SWAP3 SWAP2 POP POP JUMP JUMPDEST PUSH32 0x4E487B7100000000000000000000000000000000000000000000000000000000 PUSH0 MSTORE PUSH1 0x11 PUSH1 0x4 MSTORE PUSH1 0x24 PUSH0 REVERT JUMPDEST PUSH0 PUSH2 0x20C DUP3 PUSH2 0x1A4 JUMP JUMPDEST SWAP2 POP PUSH2 0x217 DUP4 PUSH2 0x1A4 JUMP JUMPDEST SWAP3 POP DUP3 DUP3 ADD SWAP1 POP DUP1 DUP3 GT ISZERO PUSH2 0x22F JUMPI PUSH2 0x22E PUSH2 0x1D5 JUMP JUMPDEST JUMPDEST SWAP3 SWAP2 POP POP JUMP JUMPDEST PUSH0 DUP2 MLOAD SWAP1 POP SWAP2 SWAP1 POP JUMP JUMPDEST PUSH0 DUP3 DUP3 MSTORE PUSH1 0x20 DUP3 ADD SWAP1 POP SWAP3 SWAP2 POP POP JUMP JUMPDEST DUP3 DUP2 DUP4 MCOPY PUSH0 DUP4 DUP4 ADD MSTORE POP POP POP JUMP JUMPDEST PUSH0 PUSH1 0x1F NOT PUSH1 0x1F DUP4 ADD AND SWAP1 POP SWAP2 SWAP1 POP JUMP JUMPDEST PUSH0 PUSH2 0x277 DUP3 PUSH2 0x235 JUMP JUMPDEST PUSH2 0x281 DUP2 DUP6 PUSH2 0x23F JUMP JUMPDEST SWAP4 POP PUSH2 0x291 DUP2 DUP6 PUSH1 0x20 DUP7 ADD PUSH2 0x24F JUMP JUMPDEST PUSH2 0x29A DUP2 PUSH2 0x25D JUMP JUMPDEST DUP5 ADD SWAP2 POP POP SWAP3 SWAP2 POP POP JUMP JUMPDEST PUSH0 PUSH1 0x20 DUP3 ADD SWAP1 POP DUP2 DUP2 SUB PUSH0 DUP4 ADD MSTORE PUSH2 0x2BD DUP2 DUP5 PUSH2 0x26D JUMP JUMPDEST SWAP1 POP SWAP3 SWAP2 POP POP JUMP JUMPDEST PUSH32 0x4E487B7100000000000000000000000000000000000000000000000000000000 PUSH0 MSTORE PUSH1 0x51 PUSH1 0x4 MSTORE PUSH1 0x24 PUSH0 REVERT INVALID LOG2 PUSH5 0x6970667358 0x22 SLT KECCAK256 BALANCE CALLDATALOAD DUP6 0xD0 PUSH32 0xD5D97F91113DF2B6D0B2AC71A629F8EBA569E4C9C50A1309FD314064736F6C63 NUMBER STOP ADDMOD BYTE STOP CALLER "
				},
				"gasEstimates": {
					"creation": {
						"codeDepositCost": "161600",
						"executionCost": "206",
						"totalCost": "161806"
					},
					"external": {
						"counter()": "2402",
						"increment()": "infinite"
					}
				},
				"methodIdentifiers": {
					"counter()": "61bc221a",
					"increment()": "d09de08a"
				}
			},
			"storageLayout": {
				"storage": [
					{
						"astId": 4,
						"contract": "contracts/Logic.sol:Logic",
						"label": "counter",
						"offset": 0,
						"slot": "0",
						"type": "t_uint256"
					}
				],
				"types": {
					"t_uint256": {
						"encoding": "inplace",
						"label": "uint256",
						"numberOfBytes": "32"
					}
				}
			},
			"userdoc": {
				"kind": "user",
				"methods": {},
				"version": 1
			}
		}
	}
}